:100000000C9462000C948A000C948A000C948A0070
:100010000C948A000C948A000C948A000C94E702D9
:100020000C948A000C948A000C948A000C940C03A3
:100030000C948A000C948A000C948A000C948A0018
:100040000C9445020C948A000C94B5020C948F0217
:100050000C948A000C948A000C948A000C948A00F8
:100060000C948A000C948A00000000080002010031
:100070000003040700000000000000000000000072
:10008000240027002A000000000023002600290089
:1000900000000000250028002B00040404040404D0
:1000A0000404020202020202030303030303010227
:1000B00004081020408001020408102001020408F6
:1000C00010203B0311241FBECFEFD8E0DEBFCDBF11
:1000D00011E0A0E0B1E0E0E9FCE002C005900D9283
:1000E000A032B107D9F721E0A0E2B1E001C01D9232
:1000F000AE3DB207E1F710E0C2E6D0E004C02197C0
:10010000FE010E944006C136D107C9F70E94A8032C
:100110000C9446060C9400003FB7F89480912B0194
:1001200090912C01A0912D01B0912E0126B5A89B94
:1001300005C02F3F19F00196A11DB11D3FBFBA2F79
:10014000A92F982F8827BC01CD01620F711D811D39
:10015000911D42E0660F771F881F991F4A95D1F7BE
:1001600008958F929F92AF92BF92CF92DF92EF92BB
:10017000FF926B017C010E948C004B015C01C11459
:10018000D104E104F104B9F00E948C0068197909E6
:100190008A099B09683E73408105910580F321E03F
:1001A000C21AD108E108F10888EE880E83E0981E93
:1001B000A11CB11CE4CFFF90EF90DF90CF90BF90D7
:1001C000AF909F908F900895AF92BF92CF92DF92A1
:1001D000EF92FF920F931F93CF93DF936C017B01FC
:1001E0008B01040F151FEB015E01AE18BF08C0178D
:1001F000D10759F06991D601ED91FC910190F08100
:10020000E02DC6010995892B79F7C501DF91CF91C2
:100210001F910F91FF90EF90DF90CF90BF90AF9024
:100220000895FC01538D448D252F30E0842F90E0FC
:10023000821B930B541710F0CF96089501970895E1
:10024000FC01918D828D981761F0A28DAE0FBF2FAA
:10025000B11D5D968C91928D9F5F9F73928F90E000
:1002600008958FEF9FEF0895FC01918D828D98176F
:1002700031F0828DE80FF11D858D90E008958FEFAC
:100280009FEF0895FC01918D228D892F90E0805C75
:100290009F4F821B91098F73992708958FE291E0F8
:1002A0000E94420121E0892B09F420E0822F089569
:1002B00080E090E0892B29F00E944E0181110C947E
:1002C00000000895FC01A48DA80FB92FB11DA35AF9
:1002D000BF4F2C91848D90E001968F739927848F66
:1002E000A689B7892C93A089B1898C918370806489
:1002F0008C93938D848D981306C00288F389E02D2A
:1003000080818F7D80830895EF92FF920F931F93DA
:10031000CF93DF93EC0181E0888F9B8D8C8D9813B8
:100320001AC0E889F989808185FF15C09FB7F894C4
:10033000EE89FF896083E889F98980818370806410
:1003400080839FBF81E090E0DF91CF911F910F915B
:10035000FF90EF900895F62E0B8D10E00F5F1F4F6A
:100360000F731127E02E8C8D8E110CC00FB607FC79
:10037000FACFE889F989808185FFF5CFCE010E9407
:100380006201F1CFEB8DEC0FFD2FF11DE35AFF4F12
:10039000F0829FB7F8940B8FEA89FB898081806295
:1003A000CFCFCF93DF93EC01888D8823B9F0AA8952
:1003B000BB89E889F9898C9185FD03C0808186FD20
:1003C0000DC00FB607FCF7CF8C9185FFF2CF80816F
:1003D00085FFEDCFCE010E946201E9CFDF91CF9181
:1003E0000895EFE6F0E080818D7F808382E0809346
:1003F000810081E08093800029982A9808950F93C6
:100400001F93CF938B019C01C42F84B1866084B964
:1004100060E072E18AE790E0A90198010E941E065F
:10042000CA01B9016150710981099109709387006E
:1004300060938600009184001091850030E020E0F8
:10044000601771078207930720F47093850060930B
:10045000840021E120938100EC2FF0E0E150FF4F78
:10046000208130E050E040E00E941E0630938B0077
:1004700020938A00309389002093880080EB80933A
:100480008000CF911F910F9108951F920F920FB688
:100490000F9211242F933F938F939F93AF93BF930A
:1004A0008091270190912801A0912901B0912A0102
:1004B0003091260123E0230F2D3758F50196A11D19
:1004C000B11D209326018093270190932801A093CA
:1004D0002901B0932A0180912B0190912C01A091C8
:1004E0002D01B0912E010196A11DB11D80932B010C
:1004F00090932C01A0932D01B0932E01BF91AF9149
:100500009F918F913F912F910F900FBE0F901F9051
:10051000189526E8230F0296A11DB11DD2CF1F9278
:100520000F920FB60F9211242F933F934F935F9327
:100530006F937F938F939F93AF93BF93EF93FF93AB
:100540008FE291E00E946201FF91EF91BF91AF9124
:100550009F918F917F916F915F914F913F912F91DB
:100560000F900FBE0F901F9018951F920F920FB60D
:100570000F9211242F938F939F93EF93FF93E0910A
:100580003F01F09140018081E0914501F0914601E9
:1005900082FD1BC09081809148018F5F8F732091F5
:1005A0004901821741F0E0914801F0E0E15DFE4F22
:1005B000958F80934801FF91EF919F918F912F919B
:1005C0000F900FBE0F901F9018958081F4CF1F924F
:1005D0000F920FB60F9211242F933F934F935F9377
:1005E0006F937F938F939F93AF93BF93EF93FF93FB
:1005F000F0E0E0E00995FF91EF91BF91AF919F91FD
:100600008F917F916F915F914F913F912F910F90BB
:100610000FBE0F901F9018951F920F920FB60F925A
:1006200011242F933F934F935F936F937F938F93F7
:100630009F93AF93BF93EF93FF938FB7F89440913D
:100640002701509128016091290170912A018FBFE3
:100650000E94F101FF91EF91BF91AF919F918F9116
:100660007F916F915F914F913F912F910F900FBEAE
:100670000F901F901895EFE2F1E01382128288EE3E
:1006800093E0A0E0B0E084839583A683B7838EE0F7
:1006900091E09183808385EC90E09587848784EC5A
:1006A00090E09787868780EC90E0918B808B81EC3F
:1006B00090E0938B828B82EC90E0958B848B86EC20
:1006C00090E0978B868B118E128E138E148EE4EB36
:1006D000F0E0E491ACECB1E01496EC931497E5EB08
:1006E000F0E0E4911596EC93159780EA90E0FC0118
:1006F0002491E22FF0E0EE0FFF1FE057FF4F25910E
:10070000349117963C932E931697E1EAF0E0E4912A
:10071000F0E0EE0FFF1FEA57FF4F25913491199635
:100720003C932E931897FC018491E82FF0E0EE0F94
:10073000FF1FE458FF4F859194911B969C938E93D5
:100740001A9781EC9CE21D969C938E931C970895BA
:10075000CF93DF93CDB7DEB7A1970FB6F894DEBF86
:100760000FBECDBF789484B5826084BD84B58160AE
:1007700084BD85B5826085BD85B5816085BD80916C
:100780006E00816080936E001092810080918100E4
:1007900082608093810080918100816080938100DC
:1007A000809180008160809380008091B10084609E
:1007B0008093B1008091B00081608093B0008091FF
:1007C0007A00846080937A0080917A0082608093BE
:1007D0007A0080917A00816080937A0080917A001B
:1007E000806880937A001092C100E0EBF0E02491E1
:1007F000ECE9F0E084918823C9F090E0880F991F1C
:10080000FC01E458FF4FA591B491FC01E057FF4F64
:10081000459154913FB7F8949C91822F80959823ED
:100820009C93FA019081892380833FBFE0913F012F
:10083000F091400182E08083E0913B01F0913C0126
:100840001082E0913D01F0913E018FEC8083109287
:100850004701E0914301F091440186E08083E091FB
:100860004101F0914201808180618083E0914101EA
:10087000F0914201808188608083E0914101F09194
:100880004201808180688083E0914101F0914201C2
:1008900080818F7D80832BE0222E312C33E2E32E6A
:1008A000F12C49E3842E912CA12CB12C5AE0452E39
:1008B000512C612C712C60E0C62E60E0D62EE091A8
:1008C000D601F091D70180819091D001892B80834E
:1008D000E091D201F091D30190818091D001809577
:1008E00089238083C1010197F1F7E091D201F09152
:1008F000D30180819091D001892B8083C70101971A
:10090000F1F7E091D201F091D30190818091D00173
:10091000809589238083E091D601F091D701908161
:100920008091D001809589238083E091D401F0915A
:10093000D50180819091D101892309F47CC090E098
:1009400080E0BC0190E080E0A50194010E941E06B9
:10095000309325012093240119A28E010F5D1F4FB2
:10096000CA01B901A30192010E941E06605DF8014F
:1009700062938F01211531054105510589F73097A3
:1009800061F001900020E9F73197AF01401B510B56
:10099000B8018FE291E00E94E40042E050E06CE197
:1009A00071E08FE291E00E94E400EAE6F0E09491C9
:1009B000E0EBF0E08491ECE9F0E02491222309F4EB
:1009C0003AC1992359F0933009F4B2C008F0A5C098
:1009D000913009F4B3C0923009F4B4C0E22FF0E0D2
:1009E000EE0FFF1FEA57FF4FA591B4919C91892309
:1009F00009F421C180912401909125018530910550
:100A00000CF0ADC04AE066E071E080E090E00E944A
:100A1000FF016AE070E080E090E00E94B100C11444
:100A2000D10409F44CCF0E944E01882309F447CF2A
:100A30000E94000044CF0E948C00AB01BC01809159
:100A4000D8019091D901B0E0A0E08855994EAF4F00
:100A5000BF4F840F951FA61FB71F8093DA01909395
:100A6000DB01A093DC01B093DD01E091D401F091B2
:100A7000D50180819091D101892381F40E948C005D
:100A80000091DA011091DB012091DC013091DD0150
:100A9000061717072807390740F751CF0E948C0027
:100AA0002091D8013091D901620F731F811D911DD2
:100AB0006093DA017093DB018093DC019093DD0198
:100AC000E091D401F091D50180819091D1018923E9
:100AD00081F00E948C000091DA011091DB012091DD
:100AE000DC013091DD01061717072807390740F7A9
:100AF00026CF0E948C002091D8013091D901A90104
:100B0000455051092091DA013091DB01FA01E21BD5
:100B1000F30BCF01860F971F14CF9730B1F09830A9
:100B2000D1F0943009F05ACF909180009F7D03C09E
:100B3000909180009F779093800050CF94B59F77DD
:100B400094BD4CCF94B59F7DFBCF9091B0009F7723
:100B50009093B00043CF9091B0009F7DF9CF873044
:100B6000910534F44AE065E171E080E090E04FCF18
:100B70008A30910534F44AE066E271E080E090E06A
:100B800046CF8D30910534F44AE067E371E080E0B0
:100B900090E03DCF8031910534F44AE06AE471E0A1
:100BA00080E090E034CF8331910534F44AE06DE584
:100BB00071E080E090E02BCF8531910534F44AE07C
:100BC00062E771E080E090E022CF8831910534F453
:100BD0004AE068E871E080E090E019CF8B31910540
:100BE00034F44AE06FE971E080E090E010CF8E319C
:100BF000910534F44AE068EB71E080E090E007CFC3
:100C00008132910534F44AE062ED71E080E090E0D9
:100C1000FECE8432910534F44AE06EEE71E080E05D
:100C200090E0F5CE87970CF0FACE4AE06BE072E0E8
:100C300080E090E0ECCE0E94F101F1CEA1E21A2E0C
:100C4000AA1BBB1BFD010DC0AA1FBB1FEE1FFF1F70
:100C5000A217B307E407F50720F0A21BB30BE40BC0
:100C6000F50B661F771F881F991F1A9469F7609507
:100C70007095809590959B01AC01BD01CF010895C1
:100C8000EE0FFF1F0590F491E02D0994F894FFCF2B
:100C9000C864433228211D160B02000000008401A5
:100CA000E4001101D1014201200134010D0A0000CC
:00000001FF
