:100000000C9463000C948B000C948B000C948B006C
:100010000C948B000C948B000C948B000C941403A8
:100020000C948B000C948B000C948B000C948B0024
:100030000C948B000C948B000C948B000C948B0014
:100040000C94CA020C948B000C94BC030C94960381
:100050000C948B000C948B000C948B000C948B00F4
:100060000C948B000C948B000000000023002600F1
:1000700029000200000000240027002A00000000E0
:1000800000250028002B00040404040404040402D6
:100090000202020202030303030303010204081025
:1000A00020408001020408102001020408102000F2
:1000B0000000080002010000030407000000000027
:1000C00000000000EE0711241FBECFEFD8E0DEBF16
:1000D000CDBF11E0A0E0B1E0EAE6F4E102C0059096
:1000E0000D92A433B107D9F721E0A4E3B1E001C038
:1000F0001D92A53FB207E1F710E0C3E6D0E004C0CF
:100100002197FE010E942D0AC236D107C9F70E942D
:1001100033040C94330A0C940000833081F028F4EB
:10012000813099F08230A9F008958730A9F08830A5
:10013000C9F08430B1F4809180008F7D03C080913C
:1001400080008F7780938000089584B58F7784BD79
:10015000089584B58F7DFBCF8091B0008F77809319
:10016000B00008958091B0008F7DF9CF1F93CF9399
:10017000DF93282F30E0F901E155FF4F8491F90119
:10018000E556FF4FD491F901E957FF4FC491CC23B5
:10019000A9F0162F81110E948D00EC2FF0E0EE0FD8
:1001A000FF1FE358FF4FA591B4918FB7F894EC91DE
:1001B000111108C0D095DE23DC938FBFDF91CF9162
:1001C0001F910895DE2BF8CFCF93DF9390E0FC01D1
:1001D000E556FF4F249189579F4FFC018491882356
:1001E000D1F090E0880F991FFC01ED58FF4FA591C9
:1001F000B491FC01E358FF4FC591D49161110EC039
:100200009FB7F8948C91E22FE0958E238C932881F0
:10021000E223E8839FBFDF91CF9108958FB7F894D1
:10022000EC91E22BEC938FBFF6CF3FB7F89480911F
:10023000540190915501A0915601B091570126B5F6
:10024000A89B05C02F3F19F00196A11DB11D3FBF0E
:10025000BA2FA92F982F8827BC01CD01620F711DDD
:10026000811D911D42E0660F771F881F991F4A95D7
:10027000D1F708958F929F92AF92BF92CF92DF9263
:10028000EF92FF924B015C010E9415016B017C0112
:100290000E9415016C197D098E099F09683E734003
:1002A00081059105A8F321E0821A9108A108B108FF
:1002B00088EEC80E83E0D81EE11CF11C8114910465
:1002C000A104B10429F7FF90EF90DF90CF90BF9089
:1002D000AF909F908F900895AF92BF92CF92DF9290
:1002E000EF92FF920F931F93CF93DF936C017B01EB
:1002F0008B01040F151FEB015E01AE18BF08C0177C
:10030000D10759F06991D601ED91FC910190F081EE
:10031000E02DC6010995892B79F7C501DF91CF91B1
:100320001F910F91FF90EF90DF90CF90BF90AF9013
:100330000895FC01538D448D252F30E0842F90E0EB
:10034000821B930B541710F0CF96089501970895D0
:10035000FC01918D828D981761F0A28DAE0FBF2F99
:10036000B11D5D968C91928D9F5F9F73928F90E0EF
:1003700008958FEF9FEF0895FC01918D828D98175E
:1003800031F0828DE80FF11D858D90E008958FEF9B
:100390009FEF0895FC01918D228D892F90E0805C64
:1003A0009F4F821B91098F739927089588E591E0EB
:1003B0000E94CA0121E0892B09F420E0822F0895D0
:1003C00080E090E0892B29F00E94D60181110C94E5
:1003D00000000895FC01A48DA80FB92FB11DA35AE8
:1003E000BF4F2C91848D90E001968F739927848F55
:1003F000A689B7892C93A089B1898C918370806478
:100400008C93938D848D981306C00288F389E02D18
:1004100080818F7D80830895EF92FF920F931F93C9
:10042000CF93DF93EC0181E0888F9B8D8C8D9813A7
:100430001AC0E889F989808185FF15C09FB7F894B3
:10044000EE89FF896083E889F989808183708064FF
:1004500080839FBF81E090E0DF91CF911F910F914A
:10046000FF90EF900895F62E0B8D10E00F5F1F4F59
:100470000F731127E02E8C8D8E110CC00FB607FC68
:10048000FACFE889F989808185FFF5CFCE010E94F6
:10049000EA01F1CFEB8DEC0FFD2FF11DE35AFF4F79
:1004A000F0829FB7F8940B8FEA89FB898081806284
:1004B000CFCFCF93DF93EC01888D8823B9F0AA8941
:1004C000BB89E889F9898C9185FD03C0808186FD0F
:1004D0000DC00FB607FCF7CF8C9185FFF2CF80815E
:1004E00085FFEDCFCE010E94EA01E9CFDF91CF91E8
:1004F0000895FC0101900020E9F73197AF01481BF6
:10050000590BBC0188E591E00C946C018F929F928D
:10051000AF92BF920F931F93CF93DF93CDB7DEB708
:10052000A1970FB6F894DEBF0FBECDBF19A242301F
:1005300008F44AE08E010F5D1F4F842E912CB12CE0
:10054000A12CA50194010E94EC09E62FB901CA0172
:10055000EA30F4F4E05DD801EE938D01232B242BD7
:10056000252B79F790E080E0109719F0CD010E94DB
:100570007902A1960FB6F894DEBF0FBECDBFDF9112
:10058000CF911F910F91BF90AF909F908F90089542
:10059000E95CE1CF1F920F920FB60F9211242F93B7
:1005A0003F938F939F93AF93BF938091500190910E
:1005B0005101A0915201B091530130914F0123E0BC
:1005C000230F2D3758F50196A11DB11D20934F0122
:1005D0008093500190935101A0935201B093530125
:1005E0008091540190915501A0915601B09157010D
:1005F0000196A11DB11D8093540190935501A093C4
:100600005601B0935701BF91AF919F918F913F9148
:100610002F910F900FBE0F901F90189526E8230F73
:100620000296A11DB11DD2CF1F920F920FB60F924D
:1006300011242F933F934F935F936F937F938F93E7
:100640009F93AF93BF93EF93FF9380914B01909152
:100650004C01A0914D01B0914E01892B8A2B8B2B1F
:10066000D1F190914A01E0914801F09149018081D6
:100670008927808380914B0190914C01A0914D017D
:10068000B0914E01181619061A061B069CF48091AB
:100690004B0190914C01A0914D01B0914E010197F9
:1006A000A109B10980934B0190934C01A0934D0196
:1006B000B0934E01FF91EF91BF91AF919F918F91B8
:1006C0007F916F915F914F913F912F910F900FBE4E
:1006D0000F901F90189580910001E2E7F0E0E491FF
:1006E0009FEF90930001E13051F030F0E23069F07B
:1006F00060E00E94B600DECF10926E00F9CF9091BC
:100700006F009D7F90936F00F3CF909170009D7F5D
:100710009093700091E09093B0009091B100987F19
:1007200094609093B1001092B300E2CF1F920F92A9
:100730000FB60F9211242F933F934F935F936F93B4
:100740007F938F939F93AF93BF93EF93FF9388E52E
:1007500091E00E94EA01FF91EF91BF91AF919F91CB
:100760008F917F916F915F914F913F912F910F905A
:100770000FBE0F901F9018951F920F920FB60F92F9
:1007800011242F938F939F93EF93FF93E091680130
:10079000F09169018081E0916E01F0916F0182FD1D
:1007A0001BC09081809171018F5F8F7320917201C6
:1007B000821741F0E0917101F0E0E85AFE4F958F09
:1007C00080937101FF91EF919F918F912F910F90E5
:1007D0000FBE0F901F9018958081F4CFCF92DF92BB
:1007E000EF92FF920F931F93E82FF92F05C001504E
:1007F00011092109310961F1908196239417B9F308
:1008000005C0015011092109310911F19081962388
:100810009413F7CFC12CD12CE12CF12C0AC08FEF0F
:10082000C81AD80AE80AF80A0C151D052E053F0556
:1008300079F080818623841791F36C2D7D2D8E2D88
:100840009F2D1F910F91FF90EF90DF90CF90089513
:1008500060E070E080E090E01F910F91FF90EF90DA
:10086000DF90CF900895789484B5826084BD84B57C
:10087000816084BD85B5826085BD85B5816085BD9B
:1008800080916E00816080936E0010928100809153
:1008900081008260809381008091810081608093DB
:1008A0008100809180008160809380008091B10000
:1008B00084608093B1008091B00081608093B0002B
:1008C00080917A00846080937A0080917A008260BF
:1008D00080937A0080917A00816080937A00809181
:1008E0007A00806880937A001092C10060E082E014
:1008F0000E94E40061E086E00E94E40060E087E09E
:100900000E94E400E0916801F091690182E0808337
:10091000E0916401F09165011082E0916601F0912F
:1009200067018FEC808310927001E0916C01F0916F
:100930006D0186E08083E0916A01F0916B01808116
:1009400080618083E0916A01F0916B018081886011
:100950008083E0916A01F0916B01808180688083DF
:10096000E0916A01F0916B0180818F7D8083882402
:100970008A94982C5401E3E22E2E312C60E086E01C
:100980000E94B60083E090E00197F1F761E086E015
:100990000E94B600C1010197F1F760E086E00E9475
:1009A000B600E2EAF0E06491EEE8F0E08491E82F2E
:1009B000F0E0EE0FFF1FE859FF4F8591949100E49E
:1009C00012E42FE030E0462F0E94EE03611571051E
:1009D0008105910529F06F5F7F4F8F4F9F4F9F706B
:1009E0000E94C3086B017C01C0923801D09239018A
:1009F000E0923A01F0923B0120E030E0A9010E9430
:100A00008808811112C061E087E00E94E40060E084
:100A100087E00E94B60061E070E080E090E00E9414
:100A20003A0160E087E00E94E40028E23EE74CE003
:100A30005DE3C701B6010E947A0920E030E040E0A2
:100A40005FE30E947A0960933401709335018093CB
:100A500036019093370164E670E080E090E00E94F8
:100A60003A0183E191E00E947902C0903401D09074
:100A70003501E0903601F0903701A7019601C701DA
:100A8000B6010E94E709882309F4FFC085E191E0DF
:100A90000E94790281E291E00E9479026091340122
:100AA0007091350180913601909137010E948D0837
:100AB0002B017093470160934601EFEAF0E08491C7
:100AC000EBE9F0E0F490E7E8F0E0C491CC2309F41E
:100AD000CFC081110E948D00EC2FF0E0EE0FFF1FC0
:100AE000E859FF4FA591B4918C91F82209F4C0C048
:100AF00085E0849D6001859DD00C112480910001CA
:100B0000883009F054C1E2E7F0E0C491C7FDA2C00B
:100B100061E088E00E94E400CC2319F0C23009F0C3
:100B200010C2F12CE12C60E072E18AE790E0A701AD
:100B300096010E940E0A29013A01DA01C9010197C2
:100B4000A109B1098F3F9105A105B10509F00CF488
:100B5000DFC160E472E48FE090E0A70196010E949B
:100B60000E0A2150310941095109C23009F091C1E1
:100B700082E02F3F31054105510509F00CF45BC0BF
:100B800060E970ED83E090E0A70196010E940E0AF3
:100B9000215031094109510983E02F3F31054105B9
:100BA000510509F00CF447C068E478EE81E090E06C
:100BB000A70196010E940E0A2150310941095109ED
:100BC00084E02F3F310541055105A9F1A4F164E20C
:100BD00074EF80E090E0A70196010E940E0A215078
:100BE00031094109510985E02F3F31054105510582
:100BF00011F108F162E17AE780E090E0A701960147
:100C00000E940E0A215031094109510986E02F3F07
:100C100031054105510579F070F08AE075946794CB
:100C2000579447948A95D1F7A30192012150310935
:100C30004109510987E09091B100987F892B8093F9
:100C4000B100C13009F4A8C1C23009F4B7C1CC2346
:100C500009F466C16AE070E080E090E00E943A0129
:100C600084E291E00E94790281E291E00E9479029F
:100C700080E090E0892B09F481CE0E94D601882380
:100C800009F479CE0E94000076CE26013701E8945F
:100C900077F82FEF3FEF4FE75FE7C301B2010E9404
:100CA000E70981110DC02FEF3FEF4FE75FE7C30169
:100CB000B2010E94880818161CF489E191E0E8CE80
:100CC0002FEF3FEF4FE75FE4C701B6010E947509C0
:100CD00018161CF48DE191E0DBCE2FEF3FEF4FE7CC
:100CE0005FECC701B6010E94880887FDF3CF20E0C2
:100CF00030E0A901C701B6010E94880887FF09C03A
:100D00006DE288E591E00E940C02F7FAF094F7F8A2
:100D1000F0942AE037ED43EA5BE3C701B6010E9495
:100D20001C082B013C010E9494086B017C010E946D
:100D3000C3089B01AC01C301B2010E941B082B0137
:100D40003C014AE0C701B6010E9486026EE288E5D6
:100D500091E00E940C0220E030E040E251E4C30147
:100D6000B2010E947A092B013C010E9494086B0198
:100D7000F12CE12C4AE0C701B6010E948602C701AE
:100D8000B6010E94C3089B01AC01C301B2010E94DD
:100D90001B0820E030E040E251E40E947A090E9402
:100DA000940890E080E04AE00E94860273CE8F3F74
:100DB00009F050CF88E080930001E2E7F0E0C491B1
:100DC000CF3F09F447CFC13021F150F0C23009F4D0
:100DD0003EC0C7FD3FCF61E088E00E94E4009ECEA8
:100DE00014BC15BC84B5826084BD85B5816085BDA9
:100DF000EFE8F0E0E491F0E0EE0FFF1FE358FF4F63
:100E000085919491E3EAF0E0E491E0933D01C0E044
:100E10007FCE1092800010928100809181008860C6
:100E20008093810080918100816080938100EFE850
:100E3000F0E0E491F0E0EE0FFF1FE358FF4F8591E3
:100E40009491E3EAF0E0E491E0933C0161CE1092EA
:100E5000B0001092B1008091B00082608093B00029
:100E60008091B10081608093B100EFE8F0E0E491FF
:100E7000F0E0EE0FFF1FE358FF4F859194919093A0
:100E8000490180934801E3EAF0E0E491E0934A01EC
:100E90003FCE2F3F31054105510509F00CF44FC0FD
:100EA00068E478EE81E090E0A70196010E940E0AC6
:100EB000215031094109510984E0C11195CE83E0E7
:100EC0002F3F31054105510539F134F162E17AE7EF
:100ED00080E090E0A70196010E940E0A215031099E
:100EE0004109510984E02F3F310541055105A1F029
:100EF00098F09AE075946794579447949A95D1F72F
:100F0000A3019201215031094109510985E004C032
:100F10009C0181E0C1118FCE95B5987F892B85BD4D
:100F200027BD8092420190924301A0924401B09269
:100F3000450180916E00826080936E008BCE82E0CE
:100F4000E9CFF12CE12C60E072E18AE790E0A701A3
:100F500096010E940E0A215031094109510991E080
:100F600021153105F1E04F0751056CF068E478EE8A
:100F700081E090E0A70196010E940E0A21503109FC
:100F80004109510993E0C13009F05BCE80918100A5
:100F9000887F892B8093810030938900209388007B
:100FA00080923E0190923F01A0924001B092410197
:100FB00080916F00826080936F004CCE2093B300CD
:100FC00080924B0190924C01A0924D01B0924E0143
:100FD000809170008260809370003CCEE8E5F1E083
:100FE0001382128288EE93E0A0E0B0E084839583C0
:100FF000A683B78385E091E09183808385EC90E0C0
:101000009587848784EC90E09787868780EC90E0D2
:10101000918B808B81EC90E0938B828B82EC90E0C3
:10102000958B848B86EC90E0978B868B118E128E3D
:10103000138E148E08955058BB27AA270E94330898
:101040000C943B090E942D0938F00E94340920F0CD
:1010500039F49F3F19F426F40C942A090EF4E09514
:10106000E7FB0C942409E92F0E944C0958F3BA17A6
:10107000620773078407950720F079F4A6F50C94AE
:101080006E090EF4E0950B2EBA2FA02D0B01B901BD
:1010900090010C01CA01A0011124FF27591B99F0EE
:1010A000593F50F4503E68F11A16F040A22F232FFA
:1010B000342F4427585FF3CF469537952795A7954A
:1010C000F0405395C9F77EF41F16BA0B620B730BF1
:1010D000840BBAF09150A1F0FF0FBB1F661F771F62
:1010E000881FC2F70EC0BA0F621F731F841F48F417
:1010F000879577956795B795F7959E3F08F0B0CFA0
:101100009395880F08F09927EE0F97958795089586
:101110000E94000908F481E008950E9494086894F0
:10112000B1110C946F0908950E94540988F09F57DB
:1011300098F0B92F9927B751B0F0E1F0660F771FFB
:10114000881F991F1AF0BA95C9F714C0B13091F0F1
:101150000E946E09B1E008950C946E09672F782FF4
:101160008827B85F39F0B93FCCF3869577956795B6
:10117000B395D9F73EF490958095709561957F4F22
:101180008F4F9F4F0895E89409C097FB3EF49095C8
:101190008095709561957F4F8F4F9F4F9923A9F050
:1011A000F92F96E9BB279395F695879577956795DF
:1011B000B795F111F8CFFAF4BB0F11F460FF1BC023
:1011C0006F5F7F4F8F4F9F4F16C0882311F096E9B6
:1011D00011C0772321F09EE8872F762F05C0662364
:1011E00071F096E8862F70E060E02AF09A95660F1D
:1011F000771F881FDAF7880F9695879597F90895D6
:10120000990F0008550FAA0BE0E8FEEF1616170617
:10121000E807F907C0F012161306E407F50798F07F
:10122000621B730B840B950B39F40A2661F0232B98
:10123000242B252B21F408950A2609F4A140A69514
:101240008FEF811D811D089597F99F6780E870E0F9
:1012500060E008959FEF80EC089500240A9416162C
:10126000170618060906089500240A941216130694
:10127000140605060895092E0394000C11F4882322
:1012800052F0BB0F40F4BF2B11F460FF04C06F5F3E
:101290007F4F8F4F9F4F089557FD9058440F551F14
:1012A00059F05F3F71F04795880F97FB991F61F0E8
:1012B0009F3F79F087950895121613061406551F5F
:1012C000F2CF4695F1DF08C0161617061806991FCB
:1012D000F1CF86957105610508940895E894BB27C0
:1012E00066277727CB0197F908950E94000908F433
:1012F0008FEF08950E948D090C943B090E942D09DF
:1013000038F00E94340920F0952311F00C94240940
:101310000C942A0911240C946F090E944C0970F353
:10132000959FC1F3950F50E0551F629FF001729F8A
:10133000BB27F00DB11D639FAA27F00DB11DAA1F99
:10134000649F6627B00DA11D661F829F2227B00DE6
:10135000A11D621F739FB00DA11D621F839FA00D71
:10136000611D221F749F3327A00D611D231F849FC1
:10137000600D211D822F762F6A2F11249F57504018
:101380009AF0F1F088234AF0EE0FFF1FBB1F661F93
:10139000771F881F91505040A9F79E3F510580F05C
:1013A0000C9424090C946F095F3FE4F3983ED4F346
:1013B000869577956795B795F795E7959F5FC1F700
:1013C000FE2B880F911D9695879597F908950E9499
:1013D0000009880B990B0895A1E21A2EAA1BBB1BCA
:1013E000FD010DC0AA1FBB1FEE1FFF1FA217B307F1
:1013F000E407F50720F0A21BB30BE40BF50B661F07
:10140000771F881F991F1A9469F7609570958095CA
:1014100090959B01AC01BD01CF010895052E97FB6E
:101420001EF400940E94250A57FD07D00E94EC0983
:1014300007FC03D04EF40C94250A50954095309546
:1014400021953F4F4F4F5F4F089590958095709530
:1014500061957F4F8F4F9F4F0895EE0FFF1F0590AF
:0A146000F491E02D0994F894FFCFF9
:10146A00FF000000000C026C0199015902CA01A890
:10147A0001BC0109006E616E00696E66006F7666D6
:10148A00000D0A00627574746F6E20707265737352
:04149A006564000085
:00000001FF
