:100000000C9453000C947B000C947B000C947B00AC
:100010000C947B000C947B000C947B000C947B0074
:100020000C947B000C947B000C947B000C947B0064
:100030000C947B000C947B000C947B000C947B0054
:100040000C94AF010C947B000C941F020C94F901EA
:100050000C947B000C947B000C947B000C947B0034
:100060000C947B000C947B0000000000250028000D
:100070002B0000000000240027002A0004040404D0
:100080000404040402020202020203030303030342
:10009000010204081020408001020408102001021F
:1000A000040810205C0311241FBECFEFD8E0DEBF90
:1000B000CDBF11E0A0E0B1E0E6E6F7E002C00590B8
:1000C0000D92A631B107D9F721E0A6E1B1E001C058
:1000D0001D92AC3BB207E1F710E0C3E5D0E004C0ED
:1000E0002197FE010E94AB03C235D107C9F70E94D8
:1000F00051020C94B1030C940000FC01538D448D0B
:10010000252F30E0842F90E0821B930B541710F0C2
:10011000CF96089501970895FC01918D828D9817CF
:1001200061F0A28DAE0FBF2FB11D5D968C91928DA7
:100130009F5F9F73928F90E008958FEF9FEF0895D8
:10014000FC01918D828D981731F0828DE80FF11DA1
:10015000858D90E008958FEF9FEF0895FC01918DBC
:10016000228D892F90E0805C9F4F821B91098F73B5
:1001700099270895FC01A48DA80FB92FB11DA35A8A
:10018000BF4F2C91848D90E001968F739927848FB7
:10019000A689B7892C93A089B1898C9183708064DA
:1001A0008C93938D848D981306C00288F389E02D7B
:1001B00080818F7D80830895EF92FF920F931F932C
:1001C000CF93DF93EC0181E0888F9B8D8C8D98130A
:1001D0001AC0E889F989808185FF15C09FB7F89416
:1001E000EE89FF896083E889F98980818370806462
:1001F00080839FBF81E090E0DF91CF911F910F91AD
:10020000FF90EF900895F62E0B8D10E00F5F1F4FBB
:100210000F731127E02E8C8D8E110CC00FB607FCCA
:10022000FACFE889F989808185FFF5CFCE010E9458
:10023000BA00F1CFEB8DEC0FFD2FF11DE35AFF4F0C
:10024000F0829FB7F8940B8FEA89FB8980818062E6
:10025000CFCFCF93DF93EC01888D8823B9F0AA89A3
:10026000BB89E889F9898C9185FD03C0808186FD71
:100270000DC00FB607FCF7CF8C9185FFF2CF8081C0
:1002800085FFEDCFCE010E94BA00E9CFDF91CF917B
:10029000089586E191E00E94AE0021E0892B09F4E7
:1002A00020E0822F089580E090E0892B29F00E94C1
:1002B000490181110C94000008953FB7F894809192
:1002C000B8019091B901A091BA01B091BB0126B5D6
:1002D000A89B05C02F3F19F00196A11DB11D3FBF7E
:1002E000BA2FA92F982F8827BC01CD01620F711D4D
:1002F000811D911D42E0660F771F881F991F4A9547
:10030000D1F70895AF92BF92CF92DF92EF92FF9212
:100310000F931F93CF93DF936C017B018B01040F2D
:10032000151FEB015E01AE18BF08C017D10759F0C9
:100330006991D601ED91FC910190F081E02DC6010B
:100340000995892B79F7C501DF91CF911F910F9105
:10035000FF90EF90DF90CF90BF90AF9008951F92E5
:100360000F920FB60F9211242F933F938F939F9369
:10037000AF93BF938091B4019091B501A091B60164
:10038000B091B7013091B30123E0230F2D3758F519
:100390000196A11DB11D2093B3018093B4019093E8
:1003A000B501A093B601B093B7018091B8019091C7
:1003B000B901A091BA01B091BB010196A11DB11D77
:1003C0008093B8019093B901A093BA01B093BB0197
:1003D000BF91AF919F918F913F912F910F900FBE41
:1003E0000F901F90189526E8230F0296A11DB11DAE
:1003F000D2CF1F920F920FB60F9211242F933F93DB
:100400004F935F936F937F938F939F93AF93BF931C
:10041000EF93FF9386E191E00E94BA00FF91EF9184
:10042000BF91AF919F918F917F916F915F914F910C
:100430003F912F910F900FBE0F901F9018951F9214
:100440000F920FB60F9211242F938F939F93EF93D8
:10045000FF93E0912601F09127018081E0912C012A
:10046000F0912D0182FD1BC0908180912F018F5F43
:100470008F7320913001821741F0E0912F01F0E05D
:10048000EA5EFE4F958F80932F01FF91EF919F9130
:100490008F912F910F900FBE0F901F901895808114
:1004A000F4CFCF93DF93CDB7DEB7A1970FB6F89413
:1004B000DEBF0FBECDBF789484B5826084BD84B5A5
:1004C000816084BD85B5826085BD85B5816085BD4F
:1004D00080916E00816080936E0010928100809107
:1004E000810082608093810080918100816080938F
:1004F0008100809180008160809380008091B100B4
:1005000084608093B1008091B00081608093B000DE
:1005100080917A00846080937A0080917A00826072
:1005200080937A0080917A00816080937A00809134
:100530007A00806880937A001092C100EBE9F0E0C5
:100540002491E7E8F0E084918823C9F090E0880FD7
:10055000991FFC01EE58FF4F45915491FC01E85959
:10056000FF4FA591B4919FB7F894FA01808120952F
:10057000822380838C91E22FE823EC939FBF93E446
:10058000392E2AE0822E912CA12CB12C30927C00A5
:1005900080917A00806480937A0080917A0086FD51
:1005A000FCCF90917800809179008927982789273E
:1005B0002C01092E000C6608770897FF67C06DE2D2
:1005C00086E191E00E94DC0022273327A90124194B
:1005D00035094609570919A28E010F5D1F4FCA013F
:1005E000B901A50194010E948903605DF80162933D
:1005F0008F01211531054105510589F701151105B7
:1006000061F001900020E9F73197AF01401B510BD9
:10061000B80186E191E00E94820142E050E062E18F
:1006200071E086E191E00E9482010E945D016B0110
:100630007C018AE0482E512C612C712C0E945D01B6
:100640006C197D098E099F09683E734081059105EB
:10065000A8F3F1E04F1A51086108710828EEC20EA4
:1006600023E0D21EE11CF11C411451046104710409
:1006700029F780E090E0892B09F488CF0E94490196
:10068000882309F483CF0E94000080CFA301920148
:1006900019A28E010F5D1F4FCA01B901A501940176
:1006A0000E948903605DF80162938F012115310575
:1006B0004105510589F7A2CFE6E1F1E013821282EC
:1006C00088EE93E0A0E0B0E084839583A683B783AF
:1006D00084E091E09183808385EC90E09587848726
:1006E00084EC90E09787868780EC90E0918B808BFC
:1006F00081EC90E0938B828B82EC90E0958B848BE5
:1007000086EC90E0978B868B118E128E138E148E52
:100710000895A1E21A2EAA1BBB1BFD010DC0AA1F42
:10072000BB1FEE1FFF1FA217B307E407F50720F05A
:10073000A21BB30BE40BF50B661F771F881F991FD5
:100740001A9469F760957095809590959B01AC011E
:10075000BD01CF010895EE0FFF1F0590F491E02D2C
:060760000994F894FFCF9C
:1007660000000000DC0082017D002901AE008C0043
:06077600A0000D0A0000C6
:00000001FF
