:100000000C9462000C948A000C948A000C948A0070
:100010000C948A000C948A000C948A000C942C0591
:100020000C948A000C948A000C948A000C9451055C
:100030000C948A000C948A000C948A000C948A0018
:100040000C948A040C948A000C94FA040C94D40442
:100050000C948A000C948A000C948A000C948A00F8
:100060000C948A000C948A00000000080002010031
:100070000003040700000000000000000000000072
:10008000240027002A000000000023002600290089
:1000900000000000250028002B00040404040404D0
:1000A0000404020202020202030303030303010227
:1000B00004081020408001020408102001020408F6
:1000C0001020800511241FBECFEFD8E0DEBFCDBFCA
:1000D00011E0A0E0B1E0EAE7FEE002C005900D9279
:1000E000A435B107D9F722E0A4E5B1E001C01D9223
:1000F000A231B207E1F710E0C2E6D0E004C02197D8
:10010000FE010E943507C136D107C9F70E94ED05EF
:100110000C943B070C940000CF93DF9390E0FC011C
:10012000E255FF4F249186569F4FFC01849188230E
:10013000C1F090E0880F991FFC01E458FF4FC59172
:10014000D491FC01E057FF4FA591B4919FB7F8946B
:100150008881E22FE0958E2388838C91E823EC93AD
:100160009FBFDF91CF91089590E0FC01E859FF4FC8
:100170002491FC01E255FF4F3491FC01E656FF4FFC
:10018000E491EE23C1F1222339F02330E9F090F419
:10019000213001F1223011F1F0E0EE0FFF1FEA579C
:1001A000FF4FA591B491EC91E32381E090E029F514
:1001B00080E008952730A9F02830C9F0243061F795
:1001C000809180008F7D03C0809180008F77809325
:1001D0008000E2CF84B58F7784BDDECF84B58F7D7C
:1001E000FBCF8091B0008F778093B000D5CF809106
:1001F000B0008F7DF9CF80E090E008953FB7F8948C
:1002000080915F0190916001A0916101B0916201C4
:1002100026B5A89B05C02F3F19F00196A11DB11D61
:100220003FBFBA2FA92F982F8827BC01CD01620F9D
:10023000711D811D911D42E0660F771F881F991F58
:100240004A95D1F708958F929F92AF92BF92CF9225
:10025000DF92EF92FF926B017C010E94FE004B0146
:100260005C01C114D104E104F104B9F00E94FE0064
:10027000681979098A099B09683E734081059105CF
:1002800080F321E0C21AD108E108F10888EE880E57
:1002900083E0981EA11CB11CE4CFFF90EF90DF908B
:1002A000CF90BF90AF909F908F900895AF92BF92E4
:1002B000CF92DF92EF92FF920F931F93CF93DF9332
:1002C0006C017B018B01040F151FEB015E01AE1861
:1002D000BF08C017D10759F06991D601ED91FC9183
:1002E0000190F081E02DC6010995892B79F7C501B0
:1002F000DF91CF911F910F91FF90EF90DF90CF9002
:10030000BF90AF900895FC01538D448D252F30E0B0
:10031000842F90E0821B930B541710F0CF96089512
:1003200001970895FC01918D828D981761F0A28D3F
:10033000AE0FBF2FB11D5D968C91928D9F5F9F7305
:10034000928F90E008958FEF9FEF0895FC01918DBB
:10035000828D981731F0828DE80FF11D858D90E028
:1003600008958FEF9FEF0895FC01918D228D892FC5
:1003700090E0805C9F4F821B91098F7399270895AD
:1003800083E691E00E94B40121E0892B09F420E08A
:10039000822F089580E090E0892B29F00E94C0010F
:1003A00081110C9400000895FC01A48DA80FB92FB1
:1003B000B11DA35ABF4F2C91848D90E001968F738D
:1003C0009927848FA689B7892C93A089B1898C91AC
:1003D000837080648C93938D848D981306C00288FB
:1003E000F389E02D80818F7D80830895EF92FF92C5
:1003F0000F931F93CF93DF93EC0181E0888F9B8D48
:100400008C8D98131AC0E889F989808185FF15C001
:100410009FB7F894EE89FF896083E889F989808124
:100420008370806480839FBF81E090E0DF91CF91F3
:100430001F910F91FF90EF900895F62E0B8D10E015
:100440000F5F1F4F0F731127E02E8C8D8E110CC084
:100450000FB607FCFACFE889F989808185FFF5CFCF
:10046000CE010E94D401F1CFEB8DEC0FFD2FF11DD9
:10047000E35AFF4FF0829FB7F8940B8FEA89FB890C
:1004800080818062CFCFCF93DF93EC01888D88236A
:10049000B9F0AA89BB89E889F9898C9185FD03C0E7
:1004A000808186FD0DC00FB607FCF7CF8C9185FFCC
:1004B000F2CF808185FFEDCFCE010E94D401E9CF3C
:1004C000DF91CF910895EFE6F0E080818D7F80830A
:1004D00082E08093810081E08093800029982A98AF
:1004E0000895CF92DF92EF92FF92CF936B017C0140
:1004F000C42F84B1866084B960E072E18AE790E03D
:10050000A70196010E941307CA01B9016150710940
:10051000810991096115710521E082079105D0F1EA
:10052000672F782F892F99276150710981099109C7
:1005300024E07093870060938600C0908400D09080
:100540008500F12CE12C6C157D058E059F0520F4AE
:100550007093850060938400206120938100EC2FCC
:10056000F0E0E150FF4F208130E050E040E00E9499
:10057000130730938B0020938A00309389002093D7
:10058000880080EB80938000CF91FF90EF90DF9008
:10059000CF90089521E0CDCFFC0101900020E9F734
:1005A0003197AF01481B590BBC0183E691E00C94D5
:1005B00056018F929F92AF92BF920F931F93CF934A
:1005C000DF93CDB7DEB7A1970FB6F894DEBF0FBEAD
:1005D000CDBF19A2423008F44AE08E010F5D1F4FD3
:1005E000842E912CB12CA12CA50194010E941307FB
:1005F000E62FB901CA01EA30F4F4E05DD801EE93C8
:100600008D01232B242B252B79F790E080E0109788
:1006100019F0CD010E94CC02A1960FB6F894DEBF6E
:100620000FBECDBFDF91CF911F910F91BF90AF90C3
:100630009F908F900895E95CE1CFCF92DF92EF9287
:10064000FF92CF93DF936B017C016DE283E691E033
:100650000E94F601EC0166277727CB016C197D0912
:100660008E099F094AE00E94D9028C0F9D1FDF91DD
:10067000CF91FF90EF90DF90CF9008954F925F92CF
:100680006F927F928F929F92AF92BF92CF92DF92A2
:10069000EF92FF920F931F93CF93DF9300D000D080
:1006A00000D0CDB7DEB71A82198213E000E02BE04C
:1006B000E22EF12C33E2C32ED12C48EE442E43E03F
:1006C000542E612C712C0E94FE004B015C01E091C4
:1006D0000A02F0910B02808190910402892B8083A1
:1006E000E0910602F09107029081809104028095CA
:1006F00089238083C7010197F1F7E0910602F09109
:100700000702808190910402892B8083C6010197A2
:10071000F1F7E0910602F0910702908180910402C6
:10072000809589238083E0910A02F0910B029081E9
:1007300080910402809589238083E0910802F091E2
:100740000902808190910502892391F50E94FE00A3
:10075000AB01BC0180910C0290910D02B0E0A0E0D1
:100760008855994EAF4FBF4F840F951FA61FB71FD7
:1007700080930E0290930F02A0931002B093110287
:10078000E0910802F091090280819091050289238D
:1007900089F40E94FE0020910E0230910F024091D8
:1007A000100250911102261737074807590740F7E2
:1007B00011506AC00E94FE0020910C0230910D027F
:1007C000620F731F811D911D60930E0270930F02C3
:1007D0008093100290931102E0910802F0910902B7
:1007E000808190910502892381F00E94FE00209172
:1007F0000E0230910F024091100250911102261703
:1008000037074807590740F7D3CF0E94FE002091D1
:100810000C0230910D02A9014550510920910E02A0
:1008200030910F02FA01E21BF30BAF01460F571F85
:100830004115510509F4BCCF0023C1F0A02FB0E051
:10084000AA0FBB1F129621E030E02C0F3D1FA20F14
:10085000B31F202FCD010497FC0180819181841763
:10086000950728F49E938E932150A1F720E0E22F64
:10087000F0E0EE0FFF1F21E030E02C0F3D1FE20FF4
:10088000F31F518340830F5F011728F50E94FE007C
:10089000681979098A099B096834714781059105AE
:1008A00008F011CF0E94FE0048E4840E41E7941E38
:1008B000A11CB11CA5019401261B370B480B590B39
:1008C000CA01B901A30192010E941307CA01B9012B
:1008D0000E942301F8CE1E7FFE01E10FF11D618110
:1008E000728190E080E026960FB6F894DEBF0FBECE
:1008F000CDBFDF91CF911F910F91FF90EF90DF90CF
:10090000CF90BF90AF909F908F907F906F905F90AF
:100910004F9008951F920F920FB60F9211242F93AC
:100920003F938F939F93AF93BF9380915B0190917F
:100930005C01A0915D01B0915E0130915A0123E00C
:10094000230F2D3758F50196A11DB11D20935A0193
:1009500080935B0190935C01A0935D01B0935E0175
:1009600080915F0190916001A0916101B09162015D
:100970000196A11DB11D80935F0190936001A0932A
:100980006101B0936201BF91AF919F918F913F91AF
:100990002F910F900FBE0F901F90189526E8230FF0
:1009A0000296A11DB11DD2CF1F920F920FB60F92CA
:1009B00011242F933F934F935F936F937F938F9364
:1009C0009F93AF93BF93EF93FF9383E691E00E94D1
:1009D000D401FF91EF91BF91AF919F918F917F9142
:1009E0006F915F914F913F912F910F900FBE0F909C
:1009F0001F9018951F920F920FB60F9211242F93EC
:100A00008F939F93EF93FF93E0917301F0917401A3
:100A10008081E0917901F0917A0182FD1BC0908183
:100A200080917C018F5F8F7320917D01821741F04F
:100A3000E0917C01F0E0ED59FE4F958F80937C01B1
:100A4000FF91EF919F918F912F910F900FBE0F907B
:100A50001F9018958081F4CF1F920F920FB60F92BE
:100A600011242F933F934F935F936F937F938F93B3
:100A70009F93AF93BF93EF93FF93F0E0E0E009956E
:100A8000FF91EF91BF91AF919F918F917F916F9166
:100A90005F914F913F912F910F900FBE0F901F903C
:100AA00018951F920F920FB60F9211242F933F9318
:100AB0004F935F936F937F938F939F93AF93BF9366
:100AC000EF93FF938FB7F89440915B0150915C01D5
:100AD00060915D0170915E018FBF0E946302FF9182
:100AE000EF91BF91AF919F918F917F916F915F91A6
:100AF0004F913F912F910F900FBE0F901F9018951F
:100B0000E3E6F1E01382128288EE93E0A0E0B0E029
:100B100084839583A683B78388E391E09183808360
:100B200085EC90E09587848784EC90E097878687B2
:100B300080EC90E0918B808B81EC90E0938B828BAA
:100B400082EC90E0958B848B86EC90E0978B868B83
:100B5000118E128E138E148EE4EBF0E0E491A0E07F
:100B6000B2E01496EC931497E5EBF0E0E49115965F
:100B7000EC93159780EA90E0FC012491E22FF0E0DD
:100B8000EE0FFF1FE057FF4F2591349117963C93CE
:100B90002E931697E1EAF0E0E491F0E0EE0FFF1FEC
:100BA000EA57FF4F2591349119963C932E9318974D
:100BB000FC018491E82FF0E0EE0FFF1FE458FF4F97
:100BC000859194911B969C938E931A9789E79EE04A
:100BD0001D969C938E931C970895789484B582609B
:100BE00084BD84B5816084BD85B5826085BD85B5D1
:100BF000816085BD80916E00816080936E0010924F
:100C000081008091810082608093810080918100C9
:100C1000816080938100809180008160809380005A
:100C20008091B10084608093B1008091B0008160B8
:100C30008093B00080917A00846080937A008091E4
:100C40007A00826080937A0080917A00816080933C
:100C50007A0080917A00806880937A001092C100B7
:100C6000E0917301F091740182E08083E0916F0163
:100C7000F09170011082E0917101F09172018FEC9E
:100C8000808310927B01E0917701F091780186E0FA
:100C90008083E0917501F09176018081806180838D
:100CA000E0917501F0917601808188608083E09108
:100CB0007501F0917601808180688083E0917501F3
:100CC000F091760180818F7D808383E00E948C008B
:100CD00084E00E948C00C9E3D0E000E010E083E0F3
:100CE0000E94B400019709F05CC00E943E03CB0152
:100CF000BE010E94FF0643E0759567954A95E1F7AE
:100D00007093590160935801660F771FFB01EC5DEA
:100D1000FE4F60817181072E000C880B990B97FFA5
:100D200038C00E941D0386E491E00E94CC0289E451
:100D300091E00E94CC0286E491E00E94CC02E09116
:100D40005801F0915901EE0FFF1FEC5DFE4F6081DD
:100D50007181072E000C880B990B611571058105B7
:100D60009105D9F40E9463026AE070E080E090E0AF
:100D70000E94230184E00E94B4000115110509F4CA
:100D8000AECF0E94C001882309F4A9CF0E940000C1
:100D9000A6CF4AE00E94D902C6CF4AE00E94710263
:100DA000E3CF0E943E03CB01BE010E94FF06759572
:100DB0006795759567957093590160935801660F13
:100DC000771FFB01E65FFE4F60817181072E000CEB
:100DD000880B990B97FF0FC00E941D0386E491E0DA
:100DE0000E94CC02E0915801F0915901EE0FFF1FD3
:100DF000E65FFE4FACCF4AE00E94D902EFCFAA1BBC
:100E0000BB1B51E107C0AA1FBB1FA617B70710F0F5
:100E1000A61BB70B881F991F5A95A9F78095909527
:100E2000BC01CD010895A1E21A2EAA1BBB1BFD0136
:100E30000DC0AA1FBB1FEE1FFF1FA217B307E407B9
:100E4000F50720F0A21BB30BE40BF50B661F771F11
:100E5000881F991F1A9469F76095709580959095F1
:100E60009B01AC01BD01CF010895EE0FFF1F05905E
:0A0E7000F491E02D0994F894FFCFEF
:100E7A00C864433228211D160B02060115012601FA
:100E8A0037014A015D01720188019F01B801D2014F
:100E9A00EE010B02060126014A015D018801B80133
:100EAA00EE010B0200000000F60156018301430225
:100EBA00B4019201A6010D0A005377697463682090
:040ECA0068697400DF
:00000001FF
